{
  "address": "0xD3409dBc641aA24cfEceBebF73543152795fEC32",
  "abi": [
    {
      "inputs": [
        {
          "internalType": "address",
          "name": "vrfCoordinator",
          "type": "address"
        },
        {
          "internalType": "uint256",
          "name": "entranceFee",
          "type": "uint256"
        },
        {
          "internalType": "bytes32",
          "name": "gasLane",
          "type": "bytes32"
        },
        {
          "internalType": "uint64",
          "name": "subscriptionId",
          "type": "uint64"
        },
        {
          "internalType": "uint32",
          "name": "callbackGasLimit",
          "type": "uint32"
        },
        {
          "internalType": "uint256",
          "name": "interval",
          "type": "uint256"
        }
      ],
      "stateMutability": "nonpayable",
      "type": "constructor"
    },
    {
      "inputs": [
        {
          "internalType": "address",
          "name": "have",
          "type": "address"
        },
        {
          "internalType": "address",
          "name": "want",
          "type": "address"
        }
      ],
      "name": "OnlyCoordinatorCanFulfill",
      "type": "error"
    },
    {
      "inputs": [],
      "name": "Raffle__NotEnoughETHEntered",
      "type": "error"
    },
    {
      "inputs": [],
      "name": "Raffle__NotOpen",
      "type": "error"
    },
    {
      "inputs": [],
      "name": "Raffle__TransferFailed",
      "type": "error"
    },
    {
      "inputs": [
        {
          "internalType": "uint256",
          "name": "currentBalance",
          "type": "uint256"
        },
        {
          "internalType": "uint256",
          "name": "numPlayers",
          "type": "uint256"
        },
        {
          "internalType": "uint256",
          "name": "raffleState",
          "type": "uint256"
        },
        {
          "internalType": "uint256",
          "name": "actualInterval",
          "type": "uint256"
        }
      ],
      "name": "Raffle__UpKeepNotNeeded",
      "type": "error"
    },
    {
      "anonymous": false,
      "inputs": [
        {
          "indexed": true,
          "internalType": "address",
          "name": "player",
          "type": "address"
        }
      ],
      "name": "RaffleEnter",
      "type": "event"
    },
    {
      "anonymous": false,
      "inputs": [
        {
          "indexed": true,
          "internalType": "uint256",
          "name": "requestId",
          "type": "uint256"
        }
      ],
      "name": "RequestedRaffleWinner",
      "type": "event"
    },
    {
      "anonymous": false,
      "inputs": [
        {
          "indexed": true,
          "internalType": "address",
          "name": "winner",
          "type": "address"
        }
      ],
      "name": "WinnerPicked",
      "type": "event"
    },
    {
      "inputs": [
        {
          "internalType": "bytes",
          "name": "",
          "type": "bytes"
        }
      ],
      "name": "checkUpkeep",
      "outputs": [
        {
          "internalType": "bool",
          "name": "upkeepNeeded",
          "type": "bool"
        },
        {
          "internalType": "bytes",
          "name": "",
          "type": "bytes"
        }
      ],
      "stateMutability": "nonpayable",
      "type": "function"
    },
    {
      "inputs": [],
      "name": "enterRaffle",
      "outputs": [],
      "stateMutability": "payable",
      "type": "function"
    },
    {
      "inputs": [],
      "name": "getEntranceFee",
      "outputs": [
        {
          "internalType": "uint256",
          "name": "",
          "type": "uint256"
        }
      ],
      "stateMutability": "view",
      "type": "function"
    },
    {
      "inputs": [],
      "name": "getInterval",
      "outputs": [
        {
          "internalType": "uint256",
          "name": "",
          "type": "uint256"
        }
      ],
      "stateMutability": "view",
      "type": "function"
    },
    {
      "inputs": [],
      "name": "getLatestTimestamp",
      "outputs": [
        {
          "internalType": "uint256",
          "name": "",
          "type": "uint256"
        }
      ],
      "stateMutability": "view",
      "type": "function"
    },
    {
      "inputs": [],
      "name": "getNumWords",
      "outputs": [
        {
          "internalType": "uint32",
          "name": "",
          "type": "uint32"
        }
      ],
      "stateMutability": "pure",
      "type": "function"
    },
    {
      "inputs": [],
      "name": "getNumberOfPlayers",
      "outputs": [
        {
          "internalType": "uint256",
          "name": "",
          "type": "uint256"
        }
      ],
      "stateMutability": "view",
      "type": "function"
    },
    {
      "inputs": [
        {
          "internalType": "uint256",
          "name": "index",
          "type": "uint256"
        }
      ],
      "name": "getPlayer",
      "outputs": [
        {
          "internalType": "address payable",
          "name": "",
          "type": "address"
        }
      ],
      "stateMutability": "view",
      "type": "function"
    },
    {
      "inputs": [],
      "name": "getRaffleState",
      "outputs": [
        {
          "internalType": "enum Raffle.RaffleState",
          "name": "",
          "type": "uint8"
        }
      ],
      "stateMutability": "view",
      "type": "function"
    },
    {
      "inputs": [],
      "name": "getRecentWinner",
      "outputs": [
        {
          "internalType": "address payable",
          "name": "",
          "type": "address"
        }
      ],
      "stateMutability": "view",
      "type": "function"
    },
    {
      "inputs": [],
      "name": "getRequestConfirmations",
      "outputs": [
        {
          "internalType": "uint16",
          "name": "",
          "type": "uint16"
        }
      ],
      "stateMutability": "pure",
      "type": "function"
    },
    {
      "inputs": [],
      "name": "getVrfCoordinator",
      "outputs": [
        {
          "internalType": "contract VRFCoordinatorV2Interface",
          "name": "",
          "type": "address"
        }
      ],
      "stateMutability": "view",
      "type": "function"
    },
    {
      "inputs": [
        {
          "internalType": "bytes",
          "name": "",
          "type": "bytes"
        }
      ],
      "name": "performUpkeep",
      "outputs": [],
      "stateMutability": "nonpayable",
      "type": "function"
    },
    {
      "inputs": [
        {
          "internalType": "uint256",
          "name": "requestId",
          "type": "uint256"
        },
        {
          "internalType": "uint256[]",
          "name": "randomWords",
          "type": "uint256[]"
        }
      ],
      "name": "rawFulfillRandomWords",
      "outputs": [],
      "stateMutability": "nonpayable",
      "type": "function"
    }
  ],
  "transactionHash": "0x6d4e4fa33f0920794590a0efcf551e6d161b0b303144db16d2679312d5919d69",
  "args": [
    "0xD4a33860578De61DBAbDc8BFdb98FD742fA7028e",
    "10000000000000000",
    "0x79d3d8832d904592c0bf9818b621522c988bb8b0c05cdc3b15aea1b6e8db0c15",
    "6029",
    "500000",
    "30"
  ],
  "numDeployments": 1,
  "solcInputHash": "bd623ca71626cd8d9a3681daba6ab008",
  "bytecode": "0x6101606040523480156200001257600080fd5b506040516200199938038062001999833981810160405281019062000038919062000294565b858073ffffffffffffffffffffffffffffffffffffffff1660808173ffffffffffffffffffffffffffffffffffffffff1681525050508460a081815250508573ffffffffffffffffffffffffffffffffffffffff1660c08173ffffffffffffffffffffffffffffffffffffffff16815250508360e081815250508267ffffffffffffffff166101008167ffffffffffffffff16815250508163ffffffff166101208163ffffffff16815250508061014081815250506000600160146101000a81548160ff0219169083600181111562000116576200011562000330565b5b0217905550426002819055505050505050506200035f565b600080fd5b600073ffffffffffffffffffffffffffffffffffffffff82169050919050565b6000620001608262000133565b9050919050565b620001728162000153565b81146200017e57600080fd5b50565b600081519050620001928162000167565b92915050565b6000819050919050565b620001ad8162000198565b8114620001b957600080fd5b50565b600081519050620001cd81620001a2565b92915050565b6000819050919050565b620001e881620001d3565b8114620001f457600080fd5b50565b6000815190506200020881620001dd565b92915050565b600067ffffffffffffffff82169050919050565b6200022d816200020e565b81146200023957600080fd5b50565b6000815190506200024d8162000222565b92915050565b600063ffffffff82169050919050565b6200026e8162000253565b81146200027a57600080fd5b50565b6000815190506200028e8162000263565b92915050565b60008060008060008060c08789031215620002b457620002b36200012e565b5b6000620002c489828a0162000181565b9650506020620002d789828a01620001bc565b9550506040620002ea89828a01620001f7565b9450506060620002fd89828a016200023c565b93505060806200031089828a016200027d565b92505060a06200032389828a01620001bc565b9150509295509295509295565b7f4e487b7100000000000000000000000000000000000000000000000000000000600052602160045260246000fd5b60805160a05160c05160e0516101005161012051610140516115c3620003d66000396000818161081501526108bd01526000610718015260006106f5015260006106d4015260008181610368015261069801526000818161034001526104650152600081816103a501526103f901526115c36000f3fe6080604052600436106100dd5760003560e01c806353a2c19a1161007f57806391ad27b41161005957806391ad27b41461027e578063e55ae4e8146102a9578063f43b52cb146102e6578063fd6673f514610311576100dd565b806353a2c19a146101ea5780635f1b0fd8146102155780636e04ff0d14610240576100dd565b80631fe543e3116100bb5780631fe543e3146101635780632cfcc5391461018c5780634585e33b14610196578063473f1ddc146101bf576100dd565b806309bc33a7146100e25780630cb4a29d1461010d578063115cbaf514610138575b600080fd5b3480156100ee57600080fd5b506100f761033c565b6040516101049190610c6e565b60405180910390f35b34801561011957600080fd5b50610122610364565b60405161012f9190610d08565b60405180910390f35b34801561014457600080fd5b5061014d61038c565b60405161015a9190610d9a565b60405180910390f35b34801561016f57600080fd5b5061018a60048036038101906101859190610f4e565b6103a3565b005b610194610463565b005b3480156101a257600080fd5b506101bd60048036038101906101b89190611005565b6105d2565b005b3480156101cb57600080fd5b506101d46107d1565b6040516101e19190611073565b60405180910390f35b3480156101f657600080fd5b506101ff6107fb565b60405161020c91906110ad565b60405180910390f35b34801561022157600080fd5b5061022a610804565b60405161023791906110e5565b60405180910390f35b34801561024c57600080fd5b50610267600480360381019061026291906111b5565b61080d565b604051610275929190611298565b60405180910390f35b34801561028a57600080fd5b506102936108b9565b6040516102a09190610c6e565b60405180910390f35b3480156102b557600080fd5b506102d060048036038101906102cb91906112c8565b6108e1565b6040516102dd9190611073565b60405180910390f35b3480156102f257600080fd5b506102fb610928565b6040516103089190610c6e565b60405180910390f35b34801561031d57600080fd5b50610326610932565b6040516103339190610c6e565b60405180910390f35b60007f0000000000000000000000000000000000000000000000000000000000000000905090565b60007f0000000000000000000000000000000000000000000000000000000000000000905090565b6000600160149054906101000a900460ff16905090565b7f000000000000000000000000000000000000000000000000000000000000000073ffffffffffffffffffffffffffffffffffffffff163373ffffffffffffffffffffffffffffffffffffffff161461045557337f00000000000000000000000000000000000000000000000000000000000000006040517f1cf993f400000000000000000000000000000000000000000000000000000000815260040161044c929190611316565b60405180910390fd5b61045f828261093e565b5050565b7f00000000000000000000000000000000000000000000000000000000000000003410156104bd576040517fbd4e069500000000000000000000000000000000000000000000000000000000815260040160405180910390fd5b600060018111156104d1576104d0610d23565b5b600160149054906101000a900460ff1660018111156104f3576104f2610d23565b5b1461052a576040517f1425571c00000000000000000000000000000000000000000000000000000000815260040160405180910390fd5b6000339080600181540180825580915050600190039060005260206000200160009091909190916101000a81548173ffffffffffffffffffffffffffffffffffffffff021916908373ffffffffffffffffffffffffffffffffffffffff1602179055503373ffffffffffffffffffffffffffffffffffffffff167f0805e1d667bddb8a95f0f09880cf94f403fb596ce79928d9f29b74203ba284d460405160405180910390a2565b60006105ec6040518060200160405280600081525061080d565b5090508061066a5747600080549050600160149054906101000a900460ff16600181111561061d5761061c610d23565b5b6002544261062b919061136e565b6040517f83a5369c00000000000000000000000000000000000000000000000000000000815260040161066194939291906113a2565b60405180910390fd5b60018060146101000a81548160ff0219169083600181111561068f5761068e610d23565b5b021790555060007f000000000000000000000000000000000000000000000000000000000000000073ffffffffffffffffffffffffffffffffffffffff16635d3b1d307f00000000000000000000000000000000000000000000000000000000000000007f000000000000000000000000000000000000000000000000000000000000000060037f000000000000000000000000000000000000000000000000000000000000000060016040518663ffffffff1660e01b8152600401610759959493929190611423565b6020604051808303816000875af1158015610778573d6000803e3d6000fd5b505050506040513d601f19601f8201168201806040525081019061079c919061148b565b9050807fcd6e45c8998311cab7e9d4385596cac867e20a0587194b954fa3a731c93ce78b60405160405180910390a250505050565b6000600160009054906101000a900473ffffffffffffffffffffffffffffffffffffffff16905090565b60006001905090565b60006003905090565b6000606060007f000000000000000000000000000000000000000000000000000000000000000060025442610842919061136e565b119050600080600181111561085a57610859610d23565b5b600160149054906101000a900460ff16600181111561087c5761087b610d23565b5b1490506000806000805490501190506000804711905083801561089c5750825b80156108a55750815b80156108ae5750805b955050505050915091565b60007f0000000000000000000000000000000000000000000000000000000000000000905090565b60008082815481106108f6576108f56114b8565b5b9060005260206000200160009054906101000a900473ffffffffffffffffffffffffffffffffffffffff169050919050565b6000600254905090565b60008080549050905090565b6000808054905082600081518110610959576109586114b8565b5b602002602001015161096b9190611516565b905060008181548110610981576109806114b8565b5b9060005260206000200160009054906101000a900473ffffffffffffffffffffffffffffffffffffffff16600160006101000a81548173ffffffffffffffffffffffffffffffffffffffff021916908373ffffffffffffffffffffffffffffffffffffffff1602179055506000600160146101000a81548160ff02191690836001811115610a1257610a11610d23565b5b021790555042600281905550600067ffffffffffffffff811115610a3957610a38610e0b565b5b604051908082528060200260200182016040528015610a675781602001602082028036833780820191505090505b5060009080519060200190610a7d929190610bae565b506000600160009054906101000a900473ffffffffffffffffffffffffffffffffffffffff1673ffffffffffffffffffffffffffffffffffffffff1647604051610ac690611578565b60006040518083038185875af1925050503d8060008114610b03576040519150601f19603f3d011682016040523d82523d6000602084013e610b08565b606091505b5050905080610b43576040517fa1d04b3900000000000000000000000000000000000000000000000000000000815260040160405180910390fd5b600160009054906101000a900473ffffffffffffffffffffffffffffffffffffffff1673ffffffffffffffffffffffffffffffffffffffff167f5b690ec4a06fe979403046eaeea5b3ce38524683c3001f662c8b5a829632f7df60405160405180910390a250505050565b828054828255906000526020600020908101928215610c27579160200282015b82811115610c265782518260006101000a81548173ffffffffffffffffffffffffffffffffffffffff021916908373ffffffffffffffffffffffffffffffffffffffff16021790555091602001919060010190610bce565b5b509050610c349190610c38565b5090565b5b80821115610c51576000816000905550600101610c39565b5090565b6000819050919050565b610c6881610c55565b82525050565b6000602082019050610c836000830184610c5f565b92915050565b600073ffffffffffffffffffffffffffffffffffffffff82169050919050565b6000819050919050565b6000610cce610cc9610cc484610c89565b610ca9565b610c89565b9050919050565b6000610ce082610cb3565b9050919050565b6000610cf282610cd5565b9050919050565b610d0281610ce7565b82525050565b6000602082019050610d1d6000830184610cf9565b92915050565b7f4e487b7100000000000000000000000000000000000000000000000000000000600052602160045260246000fd5b60028110610d6357610d62610d23565b5b50565b6000819050610d7482610d52565b919050565b6000610d8482610d66565b9050919050565b610d9481610d79565b82525050565b6000602082019050610daf6000830184610d8b565b92915050565b6000604051905090565b600080fd5b600080fd5b610dd281610c55565b8114610ddd57600080fd5b50565b600081359050610def81610dc9565b92915050565b600080fd5b6000601f19601f8301169050919050565b7f4e487b7100000000000000000000000000000000000000000000000000000000600052604160045260246000fd5b610e4382610dfa565b810181811067ffffffffffffffff82111715610e6257610e61610e0b565b5b80604052505050565b6000610e75610db5565b9050610e818282610e3a565b919050565b600067ffffffffffffffff821115610ea157610ea0610e0b565b5b602082029050602081019050919050565b600080fd5b6000610eca610ec584610e86565b610e6b565b90508083825260208201905060208402830185811115610eed57610eec610eb2565b5b835b81811015610f165780610f028882610de0565b845260208401935050602081019050610eef565b5050509392505050565b600082601f830112610f3557610f34610df5565b5b8135610f45848260208601610eb7565b91505092915050565b60008060408385031215610f6557610f64610dbf565b5b6000610f7385828601610de0565b925050602083013567ffffffffffffffff811115610f9457610f93610dc4565b5b610fa085828601610f20565b9150509250929050565b600080fd5b60008083601f840112610fc557610fc4610df5565b5b8235905067ffffffffffffffff811115610fe257610fe1610faa565b5b602083019150836001820283011115610ffe57610ffd610eb2565b5b9250929050565b6000806020838503121561101c5761101b610dbf565b5b600083013567ffffffffffffffff81111561103a57611039610dc4565b5b61104685828601610faf565b92509250509250929050565b600061105d82610c89565b9050919050565b61106d81611052565b82525050565b60006020820190506110886000830184611064565b92915050565b600063ffffffff82169050919050565b6110a78161108e565b82525050565b60006020820190506110c2600083018461109e565b92915050565b600061ffff82169050919050565b6110df816110c8565b82525050565b60006020820190506110fa60008301846110d6565b92915050565b600080fd5b600067ffffffffffffffff8211156111205761111f610e0b565b5b61112982610dfa565b9050602081019050919050565b82818337600083830152505050565b600061115861115384611105565b610e6b565b90508281526020810184848401111561117457611173611100565b5b61117f848285611136565b509392505050565b600082601f83011261119c5761119b610df5565b5b81356111ac848260208601611145565b91505092915050565b6000602082840312156111cb576111ca610dbf565b5b600082013567ffffffffffffffff8111156111e9576111e8610dc4565b5b6111f584828501611187565b91505092915050565b60008115159050919050565b611213816111fe565b82525050565b600081519050919050565b600082825260208201905092915050565b60005b83811015611253578082015181840152602081019050611238565b60008484015250505050565b600061126a82611219565b6112748185611224565b9350611284818560208601611235565b61128d81610dfa565b840191505092915050565b60006040820190506112ad600083018561120a565b81810360208301526112bf818461125f565b90509392505050565b6000602082840312156112de576112dd610dbf565b5b60006112ec84828501610de0565b91505092915050565b600061130082610c89565b9050919050565b611310816112f5565b82525050565b600060408201905061132b6000830185611307565b6113386020830184611307565b9392505050565b7f4e487b7100000000000000000000000000000000000000000000000000000000600052601160045260246000fd5b600061137982610c55565b915061138483610c55565b925082820390508181111561139c5761139b61133f565b5b92915050565b60006080820190506113b76000830187610c5f565b6113c46020830186610c5f565b6113d16040830185610c5f565b6113de6060830184610c5f565b95945050505050565b6000819050919050565b6113fa816113e7565b82525050565b600067ffffffffffffffff82169050919050565b61141d81611400565b82525050565b600060a08201905061143860008301886113f1565b6114456020830187611414565b61145260408301866110d6565b61145f606083018561109e565b61146c608083018461109e565b9695505050505050565b60008151905061148581610dc9565b92915050565b6000602082840312156114a1576114a0610dbf565b5b60006114af84828501611476565b91505092915050565b7f4e487b7100000000000000000000000000000000000000000000000000000000600052603260045260246000fd5b7f4e487b7100000000000000000000000000000000000000000000000000000000600052601260045260246000fd5b600061152182610c55565b915061152c83610c55565b92508261153c5761153b6114e7565b5b828206905092915050565b600081905092915050565b50565b6000611562600083611547565b915061156d82611552565b600082019050919050565b600061158382611555565b915081905091905056fea26469706673582212202b03a36e0da244741a44a9ae472bb37e485c1a8a0eef628a648c633384b57f6e64736f6c63430008110033",
  "devdoc": {
    "author": "Li Zhengxing",
    "details": " chainlink VRF & Keeper",
    "kind": "dev",
    "methods": {
      "checkUpkeep(bytes)": {
        "details": "keeper  1 2 ETH 3 LINK 4Open"
      },
      "performUpkeep(bytes)": {
        "details": "keeperupkeepNeeded  -- chainlink vrf"
      }
    },
    "title": "",
    "version": 1
  },
  "userdoc": {
    "kind": "user",
    "methods": {},
    "notice": "",
    "version": 1
  },
  "storageLayout": {
    "storage": [
      {
        "astId": 1168,
        "contract": "contracts/Raffle.sol:Raffle",
        "label": "s_players",
        "offset": 0,
        "slot": "0",
        "type": "t_array(t_address_payable)dyn_storage"
      },
      {
        "astId": 1185,
        "contract": "contracts/Raffle.sol:Raffle",
        "label": "s_recentWinner",
        "offset": 0,
        "slot": "1",
        "type": "t_address_payable"
      },
      {
        "astId": 1188,
        "contract": "contracts/Raffle.sol:Raffle",
        "label": "s_raffleState",
        "offset": 20,
        "slot": "1",
        "type": "t_enum(RaffleState)1163"
      },
      {
        "astId": 1190,
        "contract": "contracts/Raffle.sol:Raffle",
        "label": "s_lastTimeStamp",
        "offset": 0,
        "slot": "2",
        "type": "t_uint256"
      }
    ],
    "types": {
      "t_address_payable": {
        "encoding": "inplace",
        "label": "address payable",
        "numberOfBytes": "20"
      },
      "t_array(t_address_payable)dyn_storage": {
        "base": "t_address_payable",
        "encoding": "dynamic_array",
        "label": "address payable[]",
        "numberOfBytes": "32"
      },
      "t_enum(RaffleState)1163": {
        "encoding": "inplace",
        "label": "enum Raffle.RaffleState",
        "numberOfBytes": "1"
      },
      "t_uint256": {
        "encoding": "inplace",
        "label": "uint256",
        "numberOfBytes": "32"
      }
    }
  }
}