{
  "address": "0xCf7Ed3AccA5a467e9e704C703E8D87F634fB0Fc9",
  "abi": [
    {
      "anonymous": false,
      "inputs": [
        {
          "indexed": false,
          "internalType": "uint256",
          "name": "newValue",
          "type": "uint256"
        }
      ],
      "name": "ValueChanged",
      "type": "event"
    },
    {
      "inputs": [],
      "name": "increment",
      "outputs": [],
      "stateMutability": "nonpayable",
      "type": "function"
    },
    {
      "inputs": [],
      "name": "retrieve",
      "outputs": [
        {
          "internalType": "uint256",
          "name": "",
          "type": "uint256"
        }
      ],
      "stateMutability": "view",
      "type": "function"
    },
    {
      "inputs": [
        {
          "internalType": "uint256",
          "name": "newValue",
          "type": "uint256"
        }
      ],
      "name": "store",
      "outputs": [],
      "stateMutability": "nonpayable",
      "type": "function"
    },
    {
      "inputs": [],
      "name": "version",
      "outputs": [
        {
          "internalType": "uint256",
          "name": "",
          "type": "uint256"
        }
      ],
      "stateMutability": "pure",
      "type": "function"
    }
  ],
  "transactionHash": "0x118d338495ab88feea0dd54cb701244718017c076d4f4fed10478d299cfb1b9f",
  "args": [],
  "numDeployments": 1,
  "solcInputHash": "f045dbbaaf1efc2f8030226ff01ef834",
  "bytecode": "0x608060405234801561001057600080fd5b50610287806100206000396000f3fe608060405234801561001057600080fd5b506004361061004c5760003560e01c80632e64cec11461005157806354fd4d501461006f5780636057361d1461008d578063d09de08a146100a9575b600080fd5b6100596100b3565b6040516100669190610175565b60405180910390f35b6100776100bc565b6040516100849190610175565b60405180910390f35b6100a760048036038101906100a291906101c1565b6100c5565b005b6100b1610108565b005b60008054905090565b60006002905090565b806000819055507f93fe6d397c74fdf1402a8b72e47b68512f0510d7b98a4bc4cbdf6ac7108b3c596000546040516100fd9190610175565b60405180910390a150565b600160008082825461011a919061021d565b925050819055507f93fe6d397c74fdf1402a8b72e47b68512f0510d7b98a4bc4cbdf6ac7108b3c596000546040516101529190610175565b60405180910390a1565b6000819050919050565b61016f8161015c565b82525050565b600060208201905061018a6000830184610166565b92915050565b600080fd5b61019e8161015c565b81146101a957600080fd5b50565b6000813590506101bb81610195565b92915050565b6000602082840312156101d7576101d6610190565b5b60006101e5848285016101ac565b91505092915050565b7f4e487b7100000000000000000000000000000000000000000000000000000000600052601160045260246000fd5b60006102288261015c565b91506102338361015c565b925082820190508082111561024b5761024a6101ee565b5b9291505056fea2646970667358221220f38fd31db3e71ef87d96ca4a00d68ab9112560ef324747a3b124280589f7c3ed64736f6c63430008110033",
  "devdoc": {
    "kind": "dev",
    "methods": {},
    "version": 1
  },
  "userdoc": {
    "kind": "user",
    "methods": {},
    "version": 1
  },
  "storageLayout": {
    "storage": [
      {
        "astId": 42,
        "contract": "contracts/BoxV2.sol:BoxV2",
        "label": "value",
        "offset": 0,
        "slot": "0",
        "type": "t_uint256"
      }
    ],
    "types": {
      "t_uint256": {
        "encoding": "inplace",
        "label": "uint256",
        "numberOfBytes": "32"
      }
    }
  }
}